:100000000C94A4010C94CC010C94CC010C94F91226
:100010000C94F9120C94F9120C94CC010C94CC01B0
:100020000C94CC010C94CC010C94CC010C94CC011C
:100030000C94CC010C94CC010C94CC010C94CC010C
:100040000C9457120C94CC010C94C7120C94A1126E
:100050000C94CC010C94CC010C94CC010C94CC01EC
:100060000C94CC010C94CC015D2000626C6E6B6929
:100070006E66006D637500302E302E300066772D71
:100080007479706500544D504C364B76564E4C7317
:100090006749006275696C64004F637420323920CF
:1000A000323032342031353A34313A333800626CF0
:1000B000796E6B00312E332E3200682D62656174CB
:1000C00000343500627566662D696E003235360083
:1000D0006465760041726475696E6F204E616E6F63
:1000E000006370750041546D6567613332385000AC
:1000F000636F6E0053747265616D0000000D0A201D
:100100002020205F5F5F20205F5F202020202020B4
:10011000202020205F5F0D0A2020202F205F202933
:100120002F202F5F205F5F5F5F5F20202F202F5FDA
:100130005F0D0A20202F205F20202F202F202F2F1F
:10014000202F205F205C2F2020275F2F0D0A202FDB
:100150005F5F5F5F2F5F2F5C5F2C202F5F2F2F5F14
:100160002F5F2F5C5F5C0D0A2020202020202020A4
:100170002F5F5F5F2F2076312E332E32206F6E205F
:1001800041726475696E6F204E616E6F0D0A0D0AC3
:1001900020235374616E6457697468556B7261698A
:1001A0006E652020202068747470733A2F2F626966
:1001B000742E6C792F737775610D0A0D0A0000009B
:1001C0000000240027002A00436F6E6E6563746987
:1001D0006E672E2E2E006D73292E00526561647994
:1001E000202870696E673A200000000008000201B4
:1001F00000000304070000000000000000CF01CF52
:1002000001CF01CF01CF01CF01CF01CF01CF01CF6E
:1002100001CF01CF01CF01CF01CF01CF01CF01CF5E
:1002200001CF01CF01CF01CF01CF01CF01CF01CF4E
:1002300001CF01CF01CF01CF01CF01CF01CE01CE40
:1002400001CE01CE01CE01CE01CE01CE01CE01CE36
:1002500001CE01CE01CE01CE01CE01CE01CE01CE26
:1002600001CE01CE01CE01CE01CE01CE01CE01CE16
:1002700001CE01CE01CE01CE01CE01CE01496E7676
:10028000616C696420485720636D643A20005365AF
:10029000727665723A2000526564697265637469AA
:1002A0006E6720746F20005265616479005061634D
:1002B0006B657420746F6F206269673A2000436F2A
:1002C0006E6E656374206661696C65642E20636F71
:1002D00064653A2000496E76616C696420617574CA
:1002E0006820746F6B656E004C6F67696E2074696F
:1002F0006D656F7574004865617274626561742024
:1003000074696D656F75740000000000230026009D
:10031000290000000000250028002B00040404042C
:10032000040404040202020202020303030303039F
:10033000010204081020408001020408102001027C
:10034000040810207113821711241FBECFEFD8E0CC
:10035000DEBFCDBF11E0A0E0B1E0EAE2F8E302C009
:1003600005900D92A83DB107D9F723E0A8EDB1E0C3
:1003700001C01D92A83EB207E1F711E0C3EAD1E047
:1003800004C02197FE010E94D21BC23AD107C9F7CF
:100390000E94B8140C94081C0C9400000895089551
:1003A000CF92DF92EF92FF92CF93DF93B0917B03D6
:1003B000A0E08111AB2F80917C0390E0880F991F02
:1003C000AC01485F5C4FC0908103D0908203E09005
:1003D0008303F090840330E020E0FA01C591D491CA
:1003E000E881B90190E080E0EB23EA130AC02F5FB7
:1003F0003F4F6C157D058E059F0578F36FEF7FEFFE
:10040000CB01DF91CF91FF90EF90DF90CF900895D7
:10041000833081F028F4813099F08230A9F008957A
:100420008730A9F08830C9F08430B1F48091800021
:100430008F7D03C0809180008F7780938000089526
:1004400084B58F7784BD089584B58F7DFBCF80916F
:10045000B0008F778093B00008958091B0008F7DB9
:10046000F9CF1F93CF93DF93282F30E0F901E751A5
:10047000FE4F8491F901E05DFC4FD491F901E45EF7
:10048000FC4FC491CC23A9F0162F81110E940802C1
:10049000EC2FF0E0EE0FFF1FEE5EFC4FA591B49144
:1004A0008FB7F894EC91111108C0D095DE23DC933E
:1004B0008FBFDF91CF911F910895DE2BF8CFCF939F
:1004C000DF9390E0FC01E05DFC4F2491845E9C4F43
:1004D000FC0184918823C9F090E0880F991FFC01EA
:1004E000E254FE4FA591B491FC01EE5EFC4FC59124
:1004F000D49161110DC09FB7F8948C9120958223FF
:100500008C938881282328839FBFDF91CF91089502
:10051000623051F49FB7F8943C91822F80958323E9
:100520008C93E8812E2BEFCF8FB7F894EC912E2B84
:100530002C938FBFEACF3FB7F8948091210290911E
:100540002202A0912302B091240226B5A89B05C0E7
:100550002F3F19F00196A11DB11D3FBFBA2FA92F42
:10056000982F8827BC01CD01620F711D811D911D3F
:1005700042E0660F771F881F991F4A95D1F70895AB
:100580008F929F92AF92BF92CF92DF92EF92FF92A3
:100590006B017C010E949B024B015C01C114D104E0
:1005A000E104F104B9F00E949B02681979098A09F3
:1005B0009B09683E73408105910580F321E0C21AD2
:1005C000D108E108F10888EE880E83E0981EA11C8E
:1005D000B11CE4CFFF90EF90DF90CF90BF90AF9031
:1005E0009F908F9008952FB7F89460911D0270919D
:1005F0001E0280911F02909120022FBF0895CF927A
:10060000DF92EF92FF920F931F93CF93DF93CDB7BB
:10061000DEB7C054D1400FB6F894DEBF0FBECDBFD9
:100620000E94F30200917D0310917E0320917F03CD
:10063000309180036B017C01C01AD10AE20AF30AEF
:1006400097018601003D17402105310590F4809106
:100650008503C05CDE4F0FB6F894DEBF0FBECDBF82
:10066000DF91CF911F910F91FF90EF90DF90CF908E
:10067000089560937D0370937E0380937F0390932E
:1006800080031092780310927703109276031092F1
:1006900075031092740362E0809179030E945F02F7
:1006A00061E070E080E090E00E94C00261E0809133
:1006B00079030E945F0260E0809179030E94310219
:1006C00080917A038551823020F58BE291E1019788
:1006D000F1F762E0809179030E945F0280918603C6
:1006E00090E08230910538F0880F991F880F991F8C
:1006F00005970197F1F7F89480E00E94D0016F3FD1
:100700007F4F8F4F9F4F61F410928503789480E064
:10071000A0CF64E170E080E090E00E94C002D9CFF9
:1007200081E00E94D0016F3F7F4F8F4F9F4F61F359
:100730008E010F5F1F4F6E012FEBC21A2EEFD20AF0
:10074000780180E00E94D001F70160837183828389
:10075000938381E00E94D001F701648375838683CF
:100760009783F8E0EF0EF11CEC14FD0451F7789438
:1007700030E020E0F801C080D180E280F380448145
:10078000558166817781FFEFCF16DF06EF06FF0602
:1007900031F04F3F8FEF58076807780719F4109230
:1007A0008503B5CFF90183E0F595E7958A95E1F7E3
:1007B000EC58FC4F8081880FC416D506E606F70674
:1007C00010F180832F5F3F4F085F1F4F28323105A4
:1007D00089F6409178032091740380917503280F66
:1007E0003327331F80917603280F311D80917703C3
:1007F000820F932F911D99274817190681F681E0E2
:100800008093850326CF8160DCCFAF92BF92CF92D9
:10081000DF92EF92FF920F931F93CF93DF936C01C0
:100820007B018B01040F151FEB015E01AE18BF08A1
:10083000C017D10759F06991D601ED91FC91019053
:10084000F081E02DC6010995892B79F7C501DF916B
:10085000CF911F910F91FF90EF90DF90CF90BF90BD
:10086000AF900895FC01538D448D252F30E0842FE7
:1008700090E0821B930B541710F0CF9608950197C8
:100880000895FC01918D828D981761F0A28DAE0FB5
:10089000BF2FB11D5D968C91928D9F5F9F73928F3C
:1008A00090E008958FEF9FEF0895FC01918D828D68
:1008B000981731F0828DE80FF11D858D90E0089535
:1008C0008FEF9FEF0895FC01918D228D892F90E08D
:1008D000805C9F4F821B91098F739927089585E251
:1008E00092E00E94630421E0892B09F420E0822F2A
:1008F000089580E090E0892B29F00E946F04811117
:100900000C9400000895FC01A48DA80FB92FB11D0F
:10091000A35ABF4F2C91848D90E001968F73992735
:10092000848FA689B7892C93A089B1898C91837013
:1009300080648C93938D848D981306C00288F3890C
:10094000E02D80818F7D80830895EF92FF920F9339
:100950001F93CF93DF93EC0181E0888F9B8D8C8D6B
:1009600098131AC0E889F989808185FF15C09FB75F
:10097000F894EE89FF896083E889F9898081837022
:10098000806480839FBF81E090E0DF91CF911F91D1
:100990000F91FF90EF900895F62E0B8D10E00F5FF2
:1009A0001F4F0F731127E02E8C8D8E110CC00FB6C8
:1009B00007FCFACFE889F989808185FFF5CFCE0160
:1009C0000E948304F1CFEB8DEC0FFD2FF11DE35A54
:1009D000FF4FF0829FB7F8940B8FEA89FB898081E3
:1009E0008062CFCFCF93DF93EC01888D8823B9F05D
:1009F000AA89BB89E889F9898C9185FD03C080812A
:100A000086FD0DC00FB607FCF7CF8C9185FFF2CFA6
:100A1000808185FFEDCFCE010E948304E9CFDF9175
:100A2000CF91089520911A0230911B02281739079F
:100A300071F49091180280911902981741F0E09199
:100A40001802F0E0E852FE4F808190E008958FEFA9
:100A50009FEF0895EF92FF920F931F93CF93DF9331
:100A6000DC015C96ED90FC905D97E114F10479F463
:100A700081E090E013969C938E93129790E080E033
:100A8000DF91CF911F910F91FF90EF9008955196B4
:100A9000ED91FC91529750968C915097982F90958C
:100AA0000FB75E962C915E97122F127021FD609504
:100AB000F8942081112319F1282B2083E701219735
:100AC000F1F728E0462F50E0308160FF1AC0382B44
:100AD0003083E7012197F1F7BA01759567952150A9
:100AE00089F7112381F08081892380830FBF5C9671
:100AF0008D919C910197F1F781E090E0C1CF29237E
:100B0000DCCF3923E5CF9081892BEFCF0F931F9353
:100B1000CF93DF938C01D0E0C0E0F801EC0FFD1F14
:100B20006491662341F085EC93E00E942A05892BAD
:100B300011F02196F2CFCE01DF91CF911F910F914D
:100B4000089520911A0230911B022817390761F489
:100B5000809119022091180290E0805C9F4F821BC7
:100B600091098F739927089590E080E0089520916E
:100B70001A0230911B0228173907B9F49091180214
:100B800080911902981789F0E0911802F0E0E8527C
:100B9000FE4F80812091180230E02F5F3F4F2F736E
:100BA00033272093180290E008958FEF9FEF089568
:100BB00090E080E008958F929F92AF92BF92CF9283
:100BC000DF92EF92FF920F931F93CF93DF936C010D
:100BD0007B018B01040F151F0E94F3024B015C0186
:100BE000E701C017D107C8F40E94F3026819790918
:100BF0008A099B09603777418105910570F4D60118
:100C00008D919C91DC01ED91FC910284F385E02DA6
:100C1000099597FDE6CF8993E4CFCE018E199F0900
:100C2000DF91CF911F910F91FF90EF90DF90CF90C8
:100C3000BF90AF909F908F9008950895CF93DF93CA
:100C4000EC0160E08E810E94310261E08E810E94A1
:100C5000310260E08E810E9431028BE891E00197C1
:100C6000F1F7DF91CF910895CF92DF92EF92FF924B
:100C70000F931F93CF93DF936C017C0187E0E80E05
:100C8000F11CD0E0C0E0062F10E0B8010C2E02C02D
:100C9000759567950A94E2F76170F70181917F017C
:100CA0000E9431022196C430D10579F7C601DF9147
:100CB000CF911F910F91FF90EF90DF90CF900C9408
:100CC0001E06CF92DF92EF92FF920F931F93CF9366
:100CD000DF93EC01F62E642F8C810E9431028D810E
:100CE0008F3F19F060E00E9431020F2D10E08F85D8
:100CF00084FF25C06E0187E0C80ED11CF12CE12CC9
:100D0000B8010E2C02C0759567950A94E2F76170E0
:100D1000F60181916F010E943102FFEFEF1AFF0A85
:100D200088E0E816F10461F7CE01DF91CF911F91C1
:100D30000F91FF90EF90DF90CF900C941E06B801BA
:100D400084E0759567958A95E1F7CE010E94340697
:100D50006F2DCE01DF91CF911F910F91FF90EF90FA
:100D6000DF90CF900C94340640E0682F87E893E042
:100D70000C946106CF93DF93823029F4909196030F
:100D800098609093960380939A0310929B0380E45B
:100D900080939C0380E180939D0380E580939E0374
:100DA00061E080918B030E945F0280918C038F3FF2
:100DB00019F061E00E945F0261E080918D030E9462
:100DC0005F02C7E8D3E09E01275833408091960325
:100DD00084FD0BC084E090E021962817390744F485
:100DE00061E08E810E945F02EECF88E090E0F4CF58
:100DF0008BE39DE00197F1F760E080918B030E9407
:100E0000310260E080918D030E94310280918C0359
:100E10008F3F19F060E00E9431028091960384FDBB
:100E200039C063E087E893E00E943406CBE4D6E45F
:100E3000CE010197F1F763E087E893E00E94340662
:100E40002197F1F763E087E893E00E94340683E599
:100E500092E00197F1F762E087E893E00E943406A0
:100E60008091960380620E94B40684E08093970389
:100E70008CE00E94B40681E00E94B4068BE39FE1FF
:100E80000197F1F782E08093980386E0DF91CF919C
:100E90000C94B40680620E94B4068BE496E4019739
:100EA000F1F78091960380620E94B40683E592E098
:100EB0000197F1F78091960380620E94B406D0CF2B
:100EC00041E00E94610681E090E00895FB010190FD
:100ED0000020E9F73197AF01461B570BDC01ED917C
:100EE000FC910280F381E02D0994CF93DF930E945F
:100EF0008605EC016FE571E085EC93E00E946607E2
:100F00008C0F9D1FDF91CF9108958F929F92AF928A
:100F1000BF92EF92FF920F931F93CF93DF93CDB7C2
:100F2000DEB7A1970FB6F894DEBF0FBECDBF7C0130
:100F3000FA01CB0119A2223008F42AE08E010F5DDC
:100F40001F4F822E912CB12CA12CBF01A501940121
:100F50000E943A1BF901CA016A300CF5605DD801A4
:100F60006E938D01232B242B252B79F790E080E0C5
:100F7000109721F0BD01C7010E946607A1960FB628
:100F8000F894DEBF0FBECDBFDF91CF911F910F91BF
:100F9000FF90EF90BF90AF909F908F900895695C05
:100FA000DECFCF93DF93AC0170E060E02AE085EC08
:100FB00093E00E948507EC016FE571E085EC93E01A
:100FC0000E9466078C0F9D1FDF91CF910895CF92ED
:100FD000DF92EF92FF926C01990FEE08FF08F7FE87
:100FE00018C041E06DE287E893E00E946106442763
:100FF0005527BA014C195D096E097F092AE087E877
:1010000093E00E9485070196FF90EF90DF90CF90CC
:1010100008952AE0B701A60187E893E0FF90EF90DA
:10102000DF90CF900C9485076BE585EC93E00E94F0
:101030002A050E94F302AB01BC012AE085EC93E093
:101040000E94850788E690E00C948605CF93DF9395
:10105000BC0185EC93E00E946607EC016FE571E04E
:1010600085EC93E00E9466078C0F9D1FDF91CF9166
:101070000895DC01ED91FC911197309761F0129683
:101080002D913C911397E217F30728F4019000206B
:10109000E9F7ED93FC930895FC018081918100971D
:1010A00039F0228133818217930710F40C94C3180E
:1010B00090E080E008950F931F93CF93DF93EC01AE
:1010C000FB0101900020E9F78F01061B170B8A81B5
:1010D0009B81A801480F591F2C813D81241735079A
:1010E00068F028813981A801820F931F0E94E71BB5
:1010F0004A815B81400F511F5B834A83DF91CF910F
:101100001F910F9108950F931F93CF93DF93CDB746
:10111000DEB728970FB6F894DEBF0FBECDBF8C01A7
:10112000CB014AE0BE016F5F7F4F0E941119BE01E3
:101130006F5F7F4FC8010E945B0828960FB6F89436
:10114000DEBF0FBECDBFDF91CF911F910F910895EC
:101150003F924F925F926F927F928F929F92AF9247
:10116000BF92CF92DF92EF92FF920F931F93CF9394
:10117000DF93CDB7DEB7A3970FB6F894DEBF0FBEEF
:10118000CDBF5C012DB73EB73BA32AA360E070E062
:10119000CB010E94C002D50191968D919C919297AE
:1011A000912C029709F428C490968C9190978F5FA8
:1011B00090968C9390975E962D913C915F97232B00
:1011C00019F09924939411C48330D8F71A96ED91AD
:1011D000FC918281882309F4EDC3FE0131963F0121
:1011E00050E1452E512CD5011A96ED91FC9180814C
:1011F0009181DC01ED91FC910084F185E02D099550
:10120000181619060CF0D6C345E050E0BE01695E21
:101210007F4FF501828593850E94DB05009719F3C6
:10122000059709F073C0888D998D9827892798278D
:10123000998F888F0A8D1B8D1027012710271B8FF0
:101240000A8F892B09F462C08F89811175C00E94B1
:10125000F302D50150966D937D938D939C93539794
:1012600091962D913C918A8D9B8D232B09F060C026
:10127000288D398D2130310509F05AC0893091050A
:10128000C1F1883C910519F0049709F046C00E940D
:1012900014088BED91E00E948605F5014089518983
:1012A00062897389808D918DA28DB38D481B590BF6
:1012B0006A0B7B0B2AE085EC93E00E94850786EDA4
:1012C00091E00E947507F50180899189A289B3890F
:1012D000808F918FA28FB38F21E030E032A321A3C2
:1012E000C5010E944C1060E070E0CB010E94C0027A
:1012F0007ACF0E94140885ED92E00E94750783E082
:1013000090E0D50192969C938E939197D5011A9671
:10131000ED91FC911282912C68C30E9414088EEB0F
:1013200092E00E9486058A8D9B8D0E94D107EECFA8
:10133000059709F058CFEACF0130B1E01B0790F0D4
:101340000E9414088DEA92E00E9486058A8D9B8D8A
:101350000E94D107F50112A211A20284F385E02DAB
:10136000128241CF8DB69EB6C80101962DB73EB709
:10137000281B390B0FB6F8943EBF0FBE2DBF4DB7DB
:101380005EB74F5F5F4F7A01A801B701D5011A968A
:101390008D919C910E94DB058017910709F064C034
:1013A000EA8DFB8DEE0DFF1D10820E94F302F50108
:1013B000608B718B828B938B8F89843109F4BFC0D2
:1013C000E8F48F3009F4BBC0813109F4C7C286301C
:1013D00009F0E8C2488D598DD12CC12CF12CE12C9B
:1013E00008EC10E030E020E060E0C5010E94080E4B
:1013F0000FB6F8949EBE0FBE8DBEF5CE8932F1F0C9
:10140000873309F4C0C28D3109F0CCC281A192A109
:10141000892B01F70E94140887EA92E00E94750761
:1014200021E030E0F50132A321A3C5010E944C1058
:1014300060E070E0CB010E94C002CCCF868597852A
:10144000892B39F480E490E00E949E17F50197877C
:1014500086870A8D1B8D0E0D1F1DFA82E9821C8363
:101460000B83E016F10630F00FB6F8949EBE0FBE67
:101470008DBE4CCF40E450E0B701D5011E968D9152
:101480009C910E94F91BD5011E96ED91FC9117AE1F
:10149000C3010E943908FC01808191818017910766
:1014A00008F04AC089819A81009709F441C02B81D4
:1014B0003C8182179307E0F50E94E1188B010E949E
:1014C000140887E992E00E948605D5011E966D9169
:1014D0007C916115710521F085EC93E00E9466070F
:1014E0006AE385EC93E00E942A05C8010E94D107B7
:1014F000D5011A96ED91FC911B97128292961C923F
:101500001E9291970E94F302DC01CB01885893410F
:10151000A109B109F501848B958BA68BB78B808BC4
:10152000918BA28BB38B808F918FA28FB38F60CF63
:1015300060E070E0CB01C2CF00E510E0C0CF888D45
:10154000998DD5015F969C938E935E97EA8DFB8D66
:10155000F9A3E8A36F01CE0CDF1CFD8EEC8EDF8EAD
:10156000CE8EEC14FD0408F08CC1D7010D911C91B6
:10157000CE014C960E943908FC01808191818C1526
:101580009D0508F07EC18C8D9D8DDC012C91213450
:1015900009F065C001960E94C3184EE0342E380E43
:1015A00006970CF461C00637B2E71B0709F469C15E
:1015B00008F01DC30136F2E71F0709F403C3043620
:1015C00022E7120709F060C033243A947A8A698AC4
:1015D0001C8A1B8A5E8A4D8A60E771E0CE014196C3
:1015E0000E945B08032D10E0B801CE0141960E94D5
:1015F0008308F801E751FE4F8491F801E05DFC4F4C
:10160000F490045E1C4FF801049160E070E0002348
:1016100089F081110E940802E02FF0E0EE0FFF1F19
:10162000E85FFC4FA591B491EC91FE2261E070E07F
:1016300009F460E0CE0141960E9483080B891C8961
:101640000150110929893A89D12CC12CF12CE12CA6
:1016500050E040E064E1C5010E94080E12C1CE01D5
:101660004C960E944C08382E0637B2E71B0709F447
:101670002BC128F50136F2E71F0709F4B3C0043681
:1016800022E7120709F4A2CF00371D4609F46FC004
:101690000E9414088DE792E00E948605C7010E940F
:1016A0002608D5015E964D915C91D12CC12CF12C70
:1016B000E12C02E010E030E020E060E0CCCF043626
:1016C00047E7140709F473C0063757E7150709F40D
:1016D00015C101361747E1F6CE014C960E94390834
:1016E000DC018D919C918C159D0508F0CAC061E0CC
:1016F000832D0E945F02CE014C960E944C088C0103
:1017000061E0832D0E945F020115110509F465C097
:101710000F3F110509F090C061E060C0CE014C960A
:101720000E944C08F82ECE014C960E9439080C8D70
:101730001D8D62E671E0C8010E94F01B60E0892BFC
:1017400079F065E671E0C8010E94F01B892B39F041
:1017500069E671E0C8010E94F01B892BE9F461E0A1
:101760008F2D0E945F02CE014C960E9439088C8D0D
:101770009D8D8C159D0508F084C0DC012C912134D1
:1017800069F601960E94C3183EE0F32EF80E069704
:1017900054F2FF24FA94C7CF6DE671E0C8010E94AD
:1017A000F01B892B01F762E0DBCF33243A94CE01A2
:1017B0004C960E943908DC018D919C918C159D05F9
:1017C00008F05FC061E0832D0E945F02CE014C965D
:1017D0000E944C0861E0892B09F460E0832D0E948F
:1017E00031024FC07A8A698A1C8A1B8A5E8A4D8AB6
:1017F00063E771E0CE0141960E945B08632D70E0C3
:10180000CE0141960E948308BDE0B31510F4E2EFCB
:101810003E0E832D8770806480937C0080917A00D7
:10182000806480937A0080917A0086FDFCCF60917D
:10183000780070917900FECEE32DF0E0E751FE4F85
:10184000E491E33039F148F4E130B9F0E230E9F005
:10185000003811050CF060CFC0CFE73029F1E83037
:1018600059F1E430A9F78091800080628093800074
:1018700010938B0000938A0004C084B5806884BDF7
:1018800007BDF501178E168EB3CD84B5806284BD79
:1018900008BDF7CF8091800080688093800010930E
:1018A000890000938800EDCF8091B000806880931C
:1018B000B0000093B300E5CF8091B00080628093C8
:1018C000B0000093B400DDCFE32DF0E0FA83E983AC
:1018D000BFE1B315B0F2EE0FFF1FE350FE4F2591AD
:1018E00034912115310569F2E1E02F3C3E0749F2C0
:1018F000C301F9010995C5CF33243A94CE014C9622
:101900000E9439082C8D3D8DC9018E199F0948A16F
:1019100059A1481B590B3A8329835C834B835E830F
:101920004D83E32DF0E0FA8BE98B5FE1531508F46A
:10193000A8CFEE0FFF1FE35CFD4F259134912115D9
:10194000310509F49ECF81E02E3C380709F499CF88
:10195000B301CE014196F901099593CF8A8D9B8DF4
:101960008E0D9F1DFA82E9829C838B83E816F9060F
:1019700008F03ECDC3010E943908D5015F961C9244
:101980001E925E9735CD8A8D9B8D892B09F430CDC3
:101990000E9414088EE892E00E948605C7010E940A
:1019A000260826CDF50112A211A20284F385E02DAE
:1019B00012821ECD0E94F3022B013C01F50102852B
:1019C0001385D80112969C90129781A192A1813023
:1019D000910509F090C091102FC0408E518E628EFB
:1019E000738E12A211A212961C92D50190968C9120
:1019F0009097815090968C93892DAAA1BBA10FB688
:101A0000F894BEBF0FBEADBFA3960FB6F894DEBF6D
:101A10000FBECDBFDF91CF911F910F91FF90EF903F
:101A2000DF90CF90BF90AF909F908F907F906F90FE
:101A30005F904F903F90089580899189A289B389E2
:101A4000A3019201281B390B4A0B5B0BDA01C90178
:101A5000893136EF9307A105B10560F00E941408A3
:101A600086EF92E00E947507D50192961C921E9215
:101A700091974DCC893C9F4AA105B10598F4F50199
:101A800084899589A689B789A3019201281B390BFE
:101A90004A0B5B0BDA01C901893C9F4AA105B105DC
:101AA00008F48FCBF501808D918DA28DB38DA301AC
:101AB0009201281B390B4A0B5B0BDA01C9018137F4
:101AC0009741A105B10508F47CCBD12CC12CF12C98
:101AD000E12C10E000E030E020E050E040E066E083
:101AE000C5010E94080ED50158964D925D926D92E7
:101AF0007C925B977ACF892B09F063CB808D918D97
:101B0000A28DB38D481A590A6A0A7B0A9920C9F036
:101B1000F1E74F16F7E15F066104710408F451CB59
:101B20000E94140888EE92E00E947507D5011A966B
:101B3000ED91FC911B97128292961C921E929197A6
:101B4000EACBB9E84B16B3E15B066104710408F413
:101B500038CB0E94140888EC91E00E947507F801C8
:101B600080819181DC01ED91FC910680F781E02D6F
:101B7000099581E0F801828381E090E0D5015D96CE
:101B80009C938E935C971C962D913C91F90101904A
:101B90000020E9F731978F01021B130BD12CC12CC8
:101BA000F12CE12C41E050E06DE1C5010E94080EEE
:101BB000F50184899589A689B789808F918FA28F35
:101BC000B38FFFCA7A8A698A1C8A1B8A5E8A4D8A09
:101BD00063E771E0CE0141960E945B086FEF70E011
:101BE000CE0141960E94830833243A9410CE0436E5
:101BF00047E7140709F4D9CD063757E7150709F465
:101C00007BCE0136174709F043CD33243A9464CD97
:101C10002F923F924F925F926F927F928F929F92FC
:101C2000AF92BF92CF92DF92EF92FF920F931F93EA
:101C3000CF93DF93CDB7DEB7C854D1090FB6F89470
:101C4000DEBF0FBECDBF4C0168AF5AAF49AF27967C
:101C50003FAF2EAF27971CAF0BAF2996FFAEEEAE6E
:101C60002997DEAECDAEDC011A96ED91FC911B9763
:101C70008281882309F4C1C1662351F0663041F0A6
:101C80006D3131F091968D919C91019709F0B5C11C
:101C900088AD8F50863080F5F40144895589668976
:101CA0007789C088D188E288F388C416D506E6060D
:101CB000F70610F46A017B01F2E4CF0ED11CE11C9F
:101CC000F11C0E94F302A7019601261B370B480B5B
:101CD000590BDA01C901B7FDAAC1C4010E94A808C5
:101CE0000E94F302A7019601261B370B480B590BE4
:101CF000DA01C901B7FFF1CFF40180819181019729
:101D000009F0C5C082E090E0918380832281338115
:101D1000448155816681778180859185A0E0FE01AF
:101D20007A960E94C61B09F495C1FBABEAAB1DAACB
:101D30001CAA88E190E09FAB8EAB67E671E0CE0114
:101D4000C2960E945B08D40112964C90129713968B
:101D50005C90139714966C90149715967C90159739
:101D60001696BC91BFAFF401F7812196FFAF219782
:101D7000D40118962C90189719963C90198E9201C0
:101D8000A3016FAD7F2FC101A0E00E94C61B09F423
:101D900057C1FE0179962596FFAFEEAF259727E153
:101DA00030E023963FAF2EAF23972AE0A22EB12C2E
:101DB000C12CD12CE12CF12C00E010E09201A30108
:101DC0006FAD21967FAD2197C1010E94671BF9017C
:101DD000E858FE4F80812596AEADBFAD25978E9316
:101DE0002596BFAFAEAF25972396EEADFFAD2397F7
:101DF00031972396FFAFEEAF23973AE0A32EB12C95
:101E0000C12CD12CE12CF12C00E010E09201A301B7
:101E10006FAD21967FAD2197C1010E94691B2901F9
:101E20003A016FAF21967FAF21971C01A0E00E947D
:101E3000C61B39F023964EAD5FAD2397452B09F0B5
:101E4000B4CF23966EAD7FAD23976C0F7D1F6E5F71
:101E50007F4F09F0FAC0EAA9FBA98CA99DA99C01B2
:101E60002F5F3F4F3DAB2CABE80FF91F10820CA941
:101E70001DA9015011092AA93BA9D12CC12CF12C73
:101E8000E12C50E040E065E1C4010E94080E29AD5C
:101E90003AAD232BB9F4D4015E960D90BC91A02DE0
:101EA000BAAFA9AFAB2B71F4F401848D958D019677
:101EB00009F4E5C0958F848FF401048CF58DE02D35
:101EC000FAAFE9AF27962EAD3FAD27970BAD1CAD0E
:101ED0000B5F1F4F232B11F405E010E029964EAD48
:101EE0005FAD299790E080E0452B11F08DAD9EAD60
:101EF000080F191F58AD598389AD9AAD98278927C6
:101F000098279B838A838BAD9CADADADBEAD8A0F08
:101F10009B1F9827892798279D838C83D4011A9625
:101F2000ED91FC9180819181DC01ED91FC91028029
:101F3000F381E02D45E050E0BE016F5F7F4F0995D2
:101F400060E070E0CB010E94C002B8AD85E0E82EF1
:101F5000F12CBB2309F444C0EBADFCAD95E0E92EB8
:101F6000F12CEF2BE9F0D4011A96ED91FC918081D0
:101F70009181DC01ED91FC910280F381E02D4BAD6C
:101F80005CAD27966EAD7FAD27970995EBACFCACA9
:101F9000B5E0EB0EF11C60E070E0CB010E94C002E6
:101FA000EDADFEADEF2BE1F0D4011A96ED91FC9171
:101FB00080819181DC01ED91FC910280F381E02D23
:101FC0004DAD5EAD29966EAD7FAD29970995EDAD0E
:101FD000FEADEE0EFF1E60E070E0CB010E94C0027D
:101FE000E016F10609F450C0D40192961C921E929C
:101FF00091971A96ED91FC911282C85BDF4F0FB654
:10200000F894DEBF0FBECDBFDF91CF911F910F912E
:10201000FF90EF90DF90CF90BF90AF909F908F9008
:102020007F906F905F904F903F902F900895D401D4
:1020300090968C91811160CEC4010E94A8085CCE5C
:1020400080E3888FBE01685E7F4FCE01C2960E94FA
:102050005B080DCFFA83E9831C821B8284E090E049
:102060009E838D8366E771E0CE0101960E945B0836
:102070000B811C810150110929813A81FECE81E03A
:1020800090E0958F848F18CF0E94F302F401648B47
:10209000758B868B978BB1CFAF92BF92CF92DF9229
:1020A000EF92FF920F931F93CF93DF93CDB7DEB7DD
:1020B000CE5CD1090FB6F894DEBF0FBECDBF5C0178
:1020C000CE0187579F4FC753DF4F99838883C95CE1
:1020D000D040C553DF4F19821882CB5CD04080E4DA
:1020E00090E0C353DF4F99838883CD5CD04069E88B
:1020F00071E0CE0187539F4F0E945B086EE871E04C
:10210000CE0187539F4F0E945B0848E850E063E789
:1021100070E0CE0101960E940819C553DF4FC880B8
:10212000D980CB5CD04081E0C81AD108C753DF4FBB
:10213000E880F980C95CD04008E810E09E012F5F7C
:102140003F4F50E040E061E1C5010E94080EC253DC
:10215000DF4F0FB6F894DEBF0FBECDBFDF91CF913A
:102160001F910F91FF90EF90DF90CF90BF90AF90B5
:102170000895CF92DF92EF92FF920F931F93CF9328
:10218000DF93CDB7DEB7C658D1090FB6F894DEBFDE
:102190000FBECDBF7C018B01CE010196CF57DF4F23
:1021A00099838883C158D040CD57DF4F1982188258
:1021B000C358D04080E890E0CB57DF4F99838883A5
:1021C000C558D0406CE971E0CE018F579F4F0E94F7
:1021D0005B08B701CE018F579F4F0E948308B8015B
:1021E000CE018F579F4F0E948308CD57DF4F088144
:1021F0001981C358D04001501109CF57DF4F2881B2
:102200003981C158D040D12CC12CF12CE12C50E0A7
:1022100040E064E18FE993E00E94080ECA57DF4F67
:102220000FB6F894DEBF0FBECDBFDF91CF911F91E7
:102230000F91FF90EF90DF90CF9008958F929F9233
:10224000AF92BF92CF92DF92EF92FF92CF930E9414
:10225000FF02882341F080917A038C3009F45FC03B
:1022600038F48B30F1F060E070E080EC9FE741C023
:1022700085518230C0F7C09176036C2F70E0762FC5
:10228000662766277F7780917703682B90E080E050
:102290000E94061A2DEC3CEC4CEC5DE30E94941A73
:1022A0005AC06091760370E090E080E00E94061AC8
:1022B0006B017C01C0917703C7FF0AC0AC019B0191
:1022C00060E070E080E89FEB0E9463196B017C0185
:1022D000CF706C2F70E090E080E00E94081A2DEC27
:1022E0003CEC4CEC5DE30E94941AA70196010E941D
:1022F00064190E94D0194B010E94FF02882351F0FB
:1023000080917A038B3030F08D3048F185518230E6
:1023100008F46AC060E070E080EC9FE73CC0C091C8
:1023200076036C2F70E090E080E00E94061A6B014B
:102330007C01609177036F7070E090E080E00E9414
:10234000081A2DEC3CEC4CEC5DE30E94941AA701BA
:1023500096010E946419C7FFCCCF9058CACF6091F4
:10236000750370E090E080E00E94081A2DEC3CECD0
:102370004CEC5DE30E94941A6B017C016091740344
:1023800070E090E080E00E94081A9B01AC01C70158
:10239000B6010E9464190E94D0196B01072E000C2F
:1023A000880B990B0E94081A9B01AC010E94011B2B
:1023B00081110DC0B401092C000C880B990B0E94EF
:1023C000081A9B01AC010E94011B8823F9F08FE9D8
:1023D00091E0CF91FF90EF90DF90CF90BF90AF90C2
:1023E0009F908F900C9426086091740370917503F0
:1023F00076276727762790E080E00E94061A2DEC6A
:102400003CEC4CEC5DE30E94941AC5CFB40181E032
:1024100090E00E94B910B60182E090E00E94B910ED
:10242000E1E080919A038111E0E0E195F0E0E95765
:10243000FC4F848980680E94B4066FEB71E087E8E6
:1024400093E00E946607C4010E94E70760E087E806
:1024500093E00E9460076AEC71E087E893E00E94D5
:102460006607E0919A03E23000F5E150F0E0E957A9
:10247000FC4F848980680E94B4066DEC71E087E8A7
:1024800093E00E946607C6010E94E70765ED71E0D0
:1024900087E893E0CF91FF90EF90DF90CF90BF90CF
:1024A000AF909F908F900C946607E1E0DFCF1F9272
:1024B0000F920FB60F9211242F933F938F939F93F8
:1024C000AF93BF9380911D0290911E02A0911F02B5
:1024D000B091200230911C0223E0230F2D3758F5D4
:1024E0000196A11DB11D20931C0280931D029093A3
:1024F0001E02A0931F02B0932002809121029091AE
:102500002202A0912302B09124020196A11DB11DC7
:102510008093210290932202A0932302B09324027D
:10252000BF91AF919F918F913F912F910F900FBECF
:102530000F901F90189526E8230F0296A11DB11D3C
:10254000D2CF1F920F920FB60F9211242F933F9369
:102550004F935F936F937F938F939F93AF93BF93AB
:10256000EF93FF9385E292E00E948304FF91EF9145
:10257000BF91AF919F918F917F916F915F914F919B
:102580003F912F910F900FBE0F901F9018951F92A3
:102590000F920FB60F9211242F938F939F93EF9367
:1025A000FF93E0913502F09136028081E0913B0289
:1025B000F0913C0282FD1BC0908180913E028F5FB2
:1025C0008F7320913F02821741F0E0913E02F0E0CC
:1025D000EB5DFD4F958F80933E02FF91EF919F91B0
:1025E0008F912F910F900FBE0F901F9018958081A3
:1025F000F4CF1F920F920FB60F9211242F933F9397
:102600004F935F936F937F938F939F93AF93BF93FA
:10261000EF93FF93E0911A02F0911B02309749F07B
:10262000A685B7858585968D91FF14C09C918923D9
:10263000A1F4FF91EF91BF91AF919F918F917F9105
:102640006F915F914F913F912F910F900FBE0F901F
:102650001F9018959C91892361F7A389B4899C9157
:102660008589809589238C93868997890197F1F7CD
:10267000608D718DA685B785558538E020E0CB014A
:102680000197F1F7822F90E095958795282F4C912F
:10269000452309F02068315091F7868D81FD209502
:1026A0008091190290E001968F739927309118025A
:1026B000381799F0A0911902B0E0A852BE4F2C93A0
:1026C00080931902828D938D0197F1F7A389B489C4
:1026D0008C919589892B8C93ACCF868D8160868F68
:1026E000F1CFCF93109228021092270288EE93E048
:1026F000A0E0B0E08093290290932A02A0932B02DD
:10270000B0932C0223E331E030932602209325027C
:1027100025EC30E0309332022093310224EC30E09B
:10272000309334022093330220EC30E030933602B1
:102730002093350221EC30E03093380220933702A9
:1027400022EC30E030933A022093390226EC30E05C
:1027500030933C0220933B0210923E0210923F02C3
:1027600010924002109241021092C8031092C703C7
:102770008093C9039093CA03A093CB03B093CC0377
:1027800081E591E09093C6038093C5031092DC032A
:102790001092DB031092DE031092DD031092E0032F
:1027A0001092DF031092E2031092E1036091E303C1
:1027B0006E7F6D7F6093E3036695617081E06827AB
:1027C0008BE00E94310261E08BE00E945F02EBE34C
:1027D000F3E0E491E093D503E7E2F3E0E491F0E085
:1027E000EE0FFF1FEE5EFC4F859194919093D703FF
:1027F0008093D60360E08AE00E945F028091E30349
:1028000081FD04C061E08AE00E9431028AE0809389
:10281000D103EAE3F3E0E491E093D203E6E2F3E0EC
:10282000E491F0E0EE0FFF1FE85FFC4F259134913B
:102830003093D4032093D3031092C3031092C203A6
:102840001092C4031092A00310929F031092A10350
:102850001092A2031092A3031092A4031092A50356
:102860001092A6031092A7031092A80322EC33E063
:102870003093AA032093A9031092AC031092AB03E8
:102880001092AE031092AD031092AF031092B003FA
:102890001092B1031092B2031092B3031092B403DA
:1028A0001092B5031092B6031092B7031092B803BA
:1028B0001092B9031092BA031092BC031092BB039A
:1028C0001092BE031092BD031092BF031092C10379
:1028D0001092C00310928A031092890325E431E01C
:1028E0003093880320938703CBE0C0938B039FEF43
:1028F00090938C0380938D0386E080938E0385E014
:1029000080938F0384E08093900383E0809391030E
:1029100010929203109293031092940310929503D5
:102920001092960381E00E94BA0682E080937903B8
:10293000C0937A03E2E3F3E0E491E0937B03EEE1FA
:10294000F3E0E491E0937C0380E89EE3A0E0B0E054
:102950008093810390938203A0938303B0938403B5
:102960008FEF9FEF9093730380937203CF9108953D
:10297000789484B5826084BD84B5816084BD85B55A
:10298000826085BD85B5816085BD80916E00816066
:1029900080936E001092810080918100826080930C
:1029A000810080918100816080938100809180000E
:1029B0008160809380008091B10084608093B10039
:1029C0008091B00081608093B00080917A00846033
:1029D00080937A0080917A00826080937A0080915F
:1029E0007A00816080937A0080917A008068809379
:1029F0007A001092C1001092E0031092DF0310924F
:102A0000DE031092DD031092DC031092DB038DE9EC
:102A100091E09093E2038093E1039091D10396318A
:102A200008F047C02DEB30E03093DC032093DB034C
:102A30002BE931E03093DE032093DD032CE231E01B
:102A40003093E0032093DF032091680084E0983006
:102A500048F031E09E3008F430E081E001C0880F9A
:102A60003A95EAF7822B809368002DE630E09830A3
:102A700050F02BE630E09E3030F02CE630E096311E
:102A800010F030E020E03093D9032093D803292FB1
:102A900030E0983008F0C8C081E001C0880F9A95F6
:102AA000EAF78093DA038091E1039091E2030197C2
:102AB000F1F78091DF039091E003892B49F1E091D8
:102AC0001A02F0911B0223E0E53CF20709F130976E
:102AD00039F0A389B4899C918589809589238C9349
:102AE0008091E3038E7F8093E3031092190210928A
:102AF000180285EC93E090931B0280931A02E091F8
:102B0000D803F091D90380819091DA03892B8083D7
:102B1000E0913502F091360282E08083E09131024B
:102B2000F09132021082E0913302F09134028FEC86
:102B3000808310923D02E0913902F0913A0286E0E2
:102B40008083E0913702F091380280818061808338
:102B5000E0913702F0913802808188608083E091B3
:102B60003702F0913802808180688083E0913702DB
:102B7000F091380280818F7D808388E091E090938E
:102B8000AC038093AB030E94F302DC01CB018858B5
:102B90009341A109B1098093B3039093B403A09327
:102BA000B503B093B6038093AF039093B003A093A3
:102BB000B103B093B2038093B7039093B803A0938B
:102BC000B903B093BA030E9414088DEF90E00E94FD
:102BD0007507E091A903F091AA0385E292E0918341
:102BE0008083E091A903F091AA0312821092C1039D
:102BF0001092C0030E94F3026B017C018091C0031C
:102C00009091C1030197E9F00E94F3026C197D09CC
:102C10008E099F09603576448105910590F48FE90E
:102C200093E00E94A808EACF9E3040F42850310972
:102C300081E001C0880F2A95EAF733CF2E50310981
:102C4000F7CF8091C0039091C103019751F682E0C4
:102C50000E94BA0662E0809179030E945F020E949E
:102C6000F302605D77408109910960937D03709361
:102C70007E0380937F039093800387E38093860392
:102C800080E40E94B406C0E0D1E0699187E893E057
:102C90000E94600781E0C830D807B9F780917203BD
:102CA0009091730397FF21C00E94F302E2ECF2E0DF
:102CB00050E040E026E1249FD001259FB00D112473
:102CC000AE53BD4FED01322F19923A95E9F760836B
:102CD0007183828393834F5F5F4F769648305105AF
:102CE00051F71092730310927203809172039091C6
:102CF00073030897B4F5E2ECF2E090E080E0248101
:102D00003581232B09F0D9C026813781232B09F087
:102D1000D4C026E1289FE001299FD00D1124CE5375
:102D2000DD4F88EE93E0A0E0B0E08B879C87AD8715
:102D3000BE878EE191E19D838C831A86188A1F8657
:102D400081E08B8B0E94F302688379838A839B8363
:102D50008091720390917303019690937303809313
:102D6000720322242394312C8FE993E00E94A80857
:102D70000E94F3024B015C0102EC12E0E8011D8AA3
:102D80001C8A8C819D81892B21F48E819F81892BC6
:102D9000A1F1488059806A807B80C501B401641923
:102DA000750986099709CB84DC84ED84FE846C1553
:102DB0007D058E059F0508F1C114D104E104F104DD
:102DC00009F482C0A70196010E943A1BC701B6010F
:102DD0000E942A1B460E571E681E791E4882598281
:102DE0006A827B828B89882341F02F85388921155F
:102DF000310509F06EC03D8A2C8A669693E0C23791
:102E0000D90709F0BCCFD0E0C0E0D80154968D912D
:102E10009C915597892BE9F11A968C911A978823E2
:102E200009F46BC01696ED91FC91179718968D9149
:102E30009C910995F80184899589029751F58091B3
:102E4000720390917303892B21F184819581892BE1
:102E500021F486819781892BE1F026E12C9FF001F6
:102E60002D9FF00D1124EE53FD4FDF011D922A9589
:102E7000E9F70E94F302F8016083718382839383F0
:102E800080917203909173030197909373038093E1
:102E9000720321960A5E1F4FC830D10509F0B5CFE5
:102EA00020E030E0232B09F45FCF0E946F048823D9
:102EB00009F45ACF0E94000057CF019676968830C9
:102EC000910509F01CCF4DCF88829982AA82BB82DE
:102ED00089CF89899A898217930708F08ECF3D8A16
:102EE0002C8A01969A8B898B8217930708F485CFD9
:102EF00082E090E09D8B8C8B80CF1496ED91FC91BD
:102F0000099598CF81E591E09093C6038093C5031E
:102F100080911A0290911B02855C934071F4E091BC
:102F2000D803F091D90390818091DA0380958923A9
:102F3000808310921B0210921A0208950F931F9320
:102F4000CF93DF938230910510F482E090E0E0911E
:102F5000E603F091E70330E020E0B0E0A0E0309736
:102F600099F42115310509F44AC0281B390B243086
:102F70003105D8F58A819B816115710589F1FB01C5
:102F800093838283FE0111C04081518102811381AC
:102F900048175907E0F04817590799F4109761F05E
:102FA00012960C93129713961C933296CF01DF91D1
:102FB000CF911F910F9108950093E6031093E703BB
:102FC000F4CF2115310551F04217530738F0A9010C
:102FD000DB019A01BD01DF01F801C1CFEF01F9CF9B
:102FE0009093E7038093E603CDCFFE01E20FF31F3A
:102FF000819391932250310939832883D7CF20912F
:10300000E4033091E503232B41F420912B0130910F
:103010002C013093E5032093E403209129013091A2
:103020002A012115310541F42DB73EB740912D01FC
:1030300050912E01241B350BE091E403F091E50340
:10304000E217F307A0F42E1B3F0B2817390778F07F
:10305000AC014E5F5F4F2417350748F04E0F5F1FDE
:103060005093E5034093E403819391939FCFF0E065
:10307000E0E09CCFCF93DF930097E9F0FC0132971B
:1030800013821282A091E603B091E703ED0130E0D4
:1030900020E01097A1F420813181820F931F2091AD
:1030A000E4033091E5032817390709F061C0F09374
:1030B000E503E093E403DF91CF910895EA01CE1791
:1030C000DF07E8F54A815B819E0141155105B1F7A3
:1030D000E901FB83EA8349915991C40FD51FEC178D
:1030E000FD0761F4808191810296840F951FE901AB
:1030F00099838883828193819B838A83F0E0E0E0D7
:1031000012968D919C9113970097B9F52D913C9152
:103110001197CD010296820F931F2091E403309105
:10312000E5032817390739F6309751F51092E70370
:103130001092E603B093E503A093E403BCCFD383DE
:10314000C28340815181840F951FC817D90761F44C
:103150004E5F5F4F88819981480F591F518340838B
:103160008A819B81938382832115310509F0B0CF39
:10317000F093E703E093E6039ECFFD01DC01C0CFAF
:1031800013821282D7CFFC0188279927E8942191D6
:103190002032E9F3293010F02E30C8F32B3241F001
:1031A0002D3239F4689404C00E943119820F911DA8
:1031B000219120532A30C0F31EF4909581959F4FA2
:1031C00008951F93FC0199278827BC01E894119169
:1031D0001032E9F3193010F01E30C8F31B3251F0F1
:1031E0001D3249F4689406C00E941C19610F711DBC
:1031F000811D911D119110531A30B0F33EF490953A
:103200008095709561957F4F8F4F9F4F1F910895C7
:10321000FB01DC0102C005900D9241505040D8F7EF
:103220000895BB274A3031F4992322F4BDE29095EA
:1032300081959F4F0C943A19592F482F372F262FDD
:10324000660F771F881F991F660F771F881F991FAA
:10325000620F731F841F951F660F771F881F991FAA
:1032600008957AE0979F902D879F802D910D1124CE
:103270000895BB27FB015527AA27880F991FAA1F6E
:10328000A41710F0A41B83955051B9F7A05DAA3381
:1032900008F0A95DA193009779F7B111B19311924C
:1032A000CB010C945319DC01FC01672F719177233A
:1032B000E1F7329704C07C916D9370836291AE17F1
:1032C000BF07C8F308955058BB27AA270E947B194F
:1032D0000C945A1A0E944C1A38F00E94531A20F08B
:1032E00039F49F3F19F426F40C94491A0EF4E09532
:1032F000E7FB0C94431AE92F0E946B1A58F3BA1794
:10330000620773078407950720F079F4A6F50C94FB
:103310008D1A0EF4E0950B2EBA2FA02D0B01B901DA
:1033200090010C01CA01A0011124FF27591B99F03B
:10333000593F50F4503E68F11A16F040A22F232F47
:10334000342F4427585FF3CF469537952795A79597
:10335000F0405395C9F77EF41F16BA0B620B730B3E
:10336000840BBAF09150A1F0FF0FBB1F661F771FAF
:10337000881FC2F70EC0BA0F621F731F841F48F464
:10338000879577956795B795F7959E3F08F0B0CFED
:103390009395880F08F09927EE0F979587950895D4
:1033A0000E94D7196894B1110C948E1A08950E9446
:1033B000731A88F09F5798F0B92F9927B751B0F03A
:1033C000E1F0660F771F881F991F1AF0BA95C9F7A9
:1033D00014C0B13091F00E948D1AB1E008950C94A0
:1033E0008D1A672F782F8827B85F39F0B93FCCF353
:1033F000869577956795B395D9F73EF49095809526
:10340000709561957F4F8F4F9F4F0895E89409C045
:1034100097FB3EF490958095709561957F4F8F4F07
:103420009F4F9923A9F0F92F96E9BB279395F6951D
:10343000879577956795B795F111F8CFFAF4BB0F9B
:1034400011F460FF1BC06F5F7F4F8F4F9F4F16C0FF
:10345000882311F096E911C0772321F09EE8872F89
:10346000762F05C0662371F096E8862F70E060E045
:103470002AF09A95660F771F881FDAF7880F9695BE
:10348000879597F9089597F99F6780E870E060E065
:1034900008959FEF80EC089500240A9416161706ED
:1034A00018060906089500240A9412161306140635
:1034B00005060895092E0394000C11F4882352F098
:1034C000BB0F40F4BF2B11F460FF04C06F5F7F4F50
:1034D0008F4F9F4F089557FD9058440F551F59F037
:1034E0005F3F71F04795880F97FB991F61F09F3FF1
:1034F00079F087950895121613061406551FF2CF1A
:103500004695F1DF08C0161617061806991FF1CF69
:1035100086957105610508940895E894BB27662790
:103520007727CB0197F908950E94A71A0C945A1A8D
:103530000E944C1A38F00E94531A20F0952311F083
:103540000C94431A0C94491A11240C948E1A0E945C
:103550006B1A70F3959FC1F3950F50E0551F629F52
:10356000F001729FBB27F00DB11D639FAA27F00DDC
:10357000B11DAA1F649F6627B00DA11D661F829F03
:103580002227B00DA11D621F739FB00DA11D621FE8
:10359000839FA00D611D221F749F3327A00D611D05
:1035A000231F849F600D211D822F762F6A2F1124E7
:1035B0009F5750409AF0F1F088234AF0EE0FFF1F1A
:1035C000BB1F661F771F881F91505040A9F79E3F71
:1035D000510580F00C94431A0C948E1A5F3FE4F36B
:1035E000983ED4F3869577956795B795F795E795C7
:1035F0009F5FC1F7FE2B880F911D9695879597F9D0
:1036000008950E94061B880B990B0895990F0008D6
:10361000550FAA0BE0E8FEEF16161706E807F907A4
:10362000C0F012161306E407F50798F0621B730B3F
:10363000840B950B39F40A2661F0232B242B252BC0
:1036400021F408950A2609F4A140A6958FEF811D63
:10365000811D0895DB018F939F930E945C1BBF9196
:10366000AF91A29F800D911DA39F900DB29F900DD1
:1036700011240895A1E21A2EAA1BBB1BFD010DC047
:10368000AA1FBB1FEE1FFF1FA217B307E407F50712
:1036900020F0A21BB30BE40BF50B661F771F881FEE
:1036A000991F1A9469F760957095809590959B0184
:1036B000AC01BD01CF0108950E94D81BA59F900DBC
:1036C000B49F900DA49F800D911D112408956894BE
:1036D00001C0E8948F929F92CF93DF930E94751B55
:1036E000DF91CF919F908F90089588249924F401C1
:1036F000E401B0E49F93AA279A158B049C04ED057E
:10370000FE05CF05D007A10798F4AD2FDC2FCF2FF2
:10371000FE2FE92D982C892E982F872F762F652F35
:10372000542F432F322F2227B85031F7BF9127C093
:103730001B2EBF91BB27220F331F441F551F661F2F
:10374000771F881F991F881C991CEE1FFF1FCC1F15
:10375000DD1FAA1FBB1F8A149B04EC05FD05CE05C7
:10376000DF05A007B10748F08A189B08EC09FD099E
:10377000CE09DF09A00BB10B21601A94E1F62EF4FB
:103780009401AF01BE01CD01000C08950024A7FDF6
:1037900000942A1730054005500560057005800526
:1037A00090050895EE0FFF1F0590F491E02D099408
:1037B000A29FB001B39FC001A39F700D811D112472
:1037C000911DB29F700D811D1124911D0895FB0163
:1037D000DC0102C001900D9241505040D8F708958D
:1037E000FB01DC018D91019080190110D9F3990B37
:1037F0000895FB01DC014150504048F001900D92CA
:103800000020C9F701C01D9241505040E0F70895D3
:1038100011E0C3EAD1E004C0FE010E94D21B219650
:0A382000C43AD107C9F7F894FFCFAE
:10382A000705070000000000774E706D4D73553094
:10383A0062426976644459484D5F6F5444704175D9
:10384A00594A32634F515354000000E80380000084
:10385A00000000A50405043204F20463044104557F
:10386A00040000000060070504D8051D06000000DA
:10387A00002A050504D805CF01A105B70512050DD3
:10388A000A00696E006F75740070776D00707500BC
:10389A00647700617700620030313233343536376D
:1038AA00383961626364656600746D706C00544DEA
:1038BA00504C364B76564E4C736749007677004625
:1038CA0061696C656420746F207265616420667238
:1038DA006F6D204448542073656E736F7221004ED9
:1038EA006869657420646F3A2000204300446F20A1
:0838FA00616D3A200025000079
:00000001FF
